{
  "contractName": "Lottery",
  "abi": [
    {
      "inputs": [
        {
          "internalType": "uint256",
          "name": "_entryPrice",
          "type": "uint256"
        },
        {
          "internalType": "uint256",
          "name": "_maxParticipancePerUser",
          "type": "uint256"
        },
        {
          "internalType": "uint256",
          "name": "_minimumParticipationAmount",
          "type": "uint256"
        }
      ],
      "stateMutability": "nonpayable",
      "type": "constructor"
    },
    {
      "inputs": [],
      "name": "entryPrice",
      "outputs": [
        {
          "internalType": "uint256",
          "name": "",
          "type": "uint256"
        }
      ],
      "stateMutability": "view",
      "type": "function"
    },
    {
      "inputs": [],
      "name": "maxParticipancePerUser",
      "outputs": [
        {
          "internalType": "uint256",
          "name": "",
          "type": "uint256"
        }
      ],
      "stateMutability": "view",
      "type": "function"
    },
    {
      "inputs": [],
      "name": "minimumParticipationAmount",
      "outputs": [
        {
          "internalType": "uint256",
          "name": "",
          "type": "uint256"
        }
      ],
      "stateMutability": "view",
      "type": "function"
    },
    {
      "inputs": [],
      "name": "owner",
      "outputs": [
        {
          "internalType": "address",
          "name": "",
          "type": "address"
        }
      ],
      "stateMutability": "view",
      "type": "function"
    },
    {
      "inputs": [],
      "name": "totalParticipation",
      "outputs": [
        {
          "internalType": "uint256",
          "name": "_value",
          "type": "uint256"
        }
      ],
      "stateMutability": "view",
      "type": "function"
    },
    {
      "inputs": [],
      "name": "participate",
      "outputs": [],
      "stateMutability": "payable",
      "type": "function"
    },
    {
      "inputs": [],
      "name": "endLottery",
      "outputs": [],
      "stateMutability": "payable",
      "type": "function"
    },
    {
      "inputs": [],
      "name": "removeParticipations",
      "outputs": [],
      "stateMutability": "payable",
      "type": "function"
    },
    {
      "inputs": [],
      "name": "getUserParticipationAmount",
      "outputs": [
        {
          "internalType": "uint256",
          "name": "",
          "type": "uint256"
        }
      ],
      "stateMutability": "view",
      "type": "function"
    },
    {
      "inputs": [],
      "name": "getContractBalance",
      "outputs": [
        {
          "internalType": "uint256",
          "name": "",
          "type": "uint256"
        }
      ],
      "stateMutability": "view",
      "type": "function"
    }
  ],
  "bytecode": "0x60e06040523480156200001157600080fd5b5060405162001147380380620011478339818101604052810190620000379190620000ee565b33600160006101000a81548173ffffffffffffffffffffffffffffffffffffffff021916908373ffffffffffffffffffffffffffffffffffffffff160217905550670de0b6b3a7640000836200008e919062000179565b608081815250508160a081815250508060c08181525050505050620001da565b600080fd5b6000819050919050565b620000c881620000b3565b8114620000d457600080fd5b50565b600081519050620000e881620000bd565b92915050565b6000806000606084860312156200010a5762000109620000ae565b5b60006200011a86828701620000d7565b93505060206200012d86828701620000d7565b92505060406200014086828701620000d7565b9150509250925092565b7f4e487b7100000000000000000000000000000000000000000000000000000000600052601160045260246000fd5b60006200018682620000b3565b91506200019383620000b3565b9250817fffffffffffffffffffffffffffffffffffffffffffffffffffffffffffffffff0483118215151615620001cf57620001ce6200014a565b5b828202905092915050565b60805160a05160c051610f1a6200022d600039600081816101e301526102970152600081816104930152610793015260008181610421015281816104eb01528181610834015261095d0152610f1a6000f3fe6080604052600436106100915760003560e01c80638da5cb5b116100595780638da5cb5b1461014c578063a775c3c314610177578063cab1a25514610181578063d11711a2146101ac578063f745adfc146101b657610091565b80630683d56a146100965780631593a8c7146100c157806315c27006146100cb57806367a8f786146100f65780636f9fb98a14610121575b600080fd5b3480156100a257600080fd5b506100ab6101e1565b6040516100b89190610a18565b60405180910390f35b6100c9610205565b005b3480156100d757600080fd5b506100e0610485565b6040516100ed9190610a18565b60405180910390f35b34801561010257600080fd5b5061010b610491565b6040516101189190610a18565b60405180910390f35b34801561012d57600080fd5b506101366104b5565b6040516101439190610a18565b60405180910390f35b34801561015857600080fd5b506101616104bd565b60405161016e9190610a74565b60405180910390f35b61017f6104e3565b005b34801561018d57600080fd5b5061019661074a565b6040516101a39190610a18565b60405180910390f35b6101b4610791565b005b3480156101c257600080fd5b506101cb61095b565b6040516101d89190610a18565b60405180910390f35b7f000000000000000000000000000000000000000000000000000000000000000081565b600160009054906101000a900473ffffffffffffffffffffffffffffffffffffffff1673ffffffffffffffffffffffffffffffffffffffff163373ffffffffffffffffffffffffffffffffffffffff1614610295576040517f08c379a000000000000000000000000000000000000000000000000000000000815260040161028c90610b12565b60405180910390fd5b7f00000000000000000000000000000000000000000000000000000000000000006102c0600061097f565b1015610301576040517f08c379a00000000000000000000000000000000000000000000000000000000081526004016102f890610b7e565b60405180910390fd5b6000600280548060200260200160405190810160405280929190818152602001828054801561038557602002820191906000526020600020905b8160009054906101000a900473ffffffffffffffffffffffffffffffffffffffff1673ffffffffffffffffffffffffffffffffffffffff168152602001906001019080831161033b575b5050505050905060008151905060005b8181101561048057600073ffffffffffffffffffffffffffffffffffffffff168382815181106103c8576103c7610b9e565b5b602002602001015173ffffffffffffffffffffffffffffffffffffffff161461046d578281815181106103fe576103fd610b9e565b5b602002602001015173ffffffffffffffffffffffffffffffffffffffff166108fc7f00000000000000000000000000000000000000000000000000000000000000009081150290604051600060405180830381858888f1935050505015801561046b573d6000803e3d6000fd5b505b808061047890610bfc565b915050610395565b505050565b60008060000154905081565b7f000000000000000000000000000000000000000000000000000000000000000081565b600047905090565b600160009054906101000a900473ffffffffffffffffffffffffffffffffffffffff1681565b6000605a60647f0000000000000000000000000000000000000000000000000000000000000000600360003373ffffffffffffffffffffffffffffffffffffffff1673ffffffffffffffffffffffffffffffffffffffff168152602001908152602001600020546105549190610c44565b61055e9190610ccd565b6105689190610c44565b9050600360003373ffffffffffffffffffffffffffffffffffffffff1673ffffffffffffffffffffffffffffffffffffffff168152602001908152602001600020600090556000600280548060200260200160405190810160405280929190818152602001828054801561063157602002820191906000526020600020905b8160009054906101000a900473ffffffffffffffffffffffffffffffffffffffff1673ffffffffffffffffffffffffffffffffffffffff16815260200190600101908083116105e7575b505050505090506000610644600061097f565b905060005b818110156106fd573373ffffffffffffffffffffffffffffffffffffffff1683828151811061067b5761067a610b9e565b5b602002602001015173ffffffffffffffffffffffffffffffffffffffff16036106ea57600281815481106106b2576106b1610b9e565b5b9060005260206000200160006101000a81549073ffffffffffffffffffffffffffffffffffffffff02191690556106e9600061098d565b5b80806106f590610bfc565b915050610649565b503373ffffffffffffffffffffffffffffffffffffffff166108fc849081150290604051600060405180830381858888f19350505050158015610744573d6000803e3d6000fd5b50505050565b6000600360003373ffffffffffffffffffffffffffffffffffffffff1673ffffffffffffffffffffffffffffffffffffffff16815260200190815260200160002054905090565b7f0000000000000000000000000000000000000000000000000000000000000000600360003373ffffffffffffffffffffffffffffffffffffffff1673ffffffffffffffffffffffffffffffffffffffff1681526020019081526020016000205410610832576040517f08c379a000000000000000000000000000000000000000000000000000000000815260040161082990610d70565b60405180910390fd5b7f0000000000000000000000000000000000000000000000000000000000000000341015610895576040517f08c379a000000000000000000000000000000000000000000000000000000000815260040161088c90610e02565b60405180910390fd5b6002339080600181540180825580915050600190039060005260206000200160009091909190916101000a81548173ffffffffffffffffffffffffffffffffffffffff021916908373ffffffffffffffffffffffffffffffffffffffff16021790555061090260006109e9565b6001600360003373ffffffffffffffffffffffffffffffffffffffff1673ffffffffffffffffffffffffffffffffffffffff16815260200190815260200160002060008282546109529190610e22565b92505081905550565b7f000000000000000000000000000000000000000000000000000000000000000081565b600081600001549050919050565b600081600001549050600081116109d9576040517f08c379a00000000000000000000000000000000000000000000000000000000081526004016109d090610ec4565b60405180910390fd5b6001810382600001819055505050565b6001816000016000828254019250508190555050565b6000819050919050565b610a12816109ff565b82525050565b6000602082019050610a2d6000830184610a09565b92915050565b600073ffffffffffffffffffffffffffffffffffffffff82169050919050565b6000610a5e82610a33565b9050919050565b610a6e81610a53565b82525050565b6000602082019050610a896000830184610a65565b92915050565b600082825260208201905092915050565b7f4f6e6c79206f776e65722063616e2063616c6c20746869732066756e6374696f60008201527f6e2e000000000000000000000000000000000000000000000000000000000000602082015250565b6000610afc602283610a8f565b9150610b0782610aa0565b604082019050919050565b60006020820190508181036000830152610b2b81610aef565b9050919050565b7f4e6f7420656e6f7567682070617274696369706174696f6e732e000000000000600082015250565b6000610b68601a83610a8f565b9150610b7382610b32565b602082019050919050565b60006020820190508181036000830152610b9781610b5b565b9050919050565b7f4e487b7100000000000000000000000000000000000000000000000000000000600052603260045260246000fd5b7f4e487b7100000000000000000000000000000000000000000000000000000000600052601160045260246000fd5b6000610c07826109ff565b91507fffffffffffffffffffffffffffffffffffffffffffffffffffffffffffffffff8203610c3957610c38610bcd565b5b600182019050919050565b6000610c4f826109ff565b9150610c5a836109ff565b9250817fffffffffffffffffffffffffffffffffffffffffffffffffffffffffffffffff0483118215151615610c9357610c92610bcd565b5b828202905092915050565b7f4e487b7100000000000000000000000000000000000000000000000000000000600052601260045260246000fd5b6000610cd8826109ff565b9150610ce3836109ff565b925082610cf357610cf2610c9e565b5b828204905092915050565b7f596f75277665206578636565646564206d61782070617274696369706174696f60008201527f6e20616d6f756e742e0000000000000000000000000000000000000000000000602082015250565b6000610d5a602983610a8f565b9150610d6582610cfe565b604082019050919050565b60006020820190508181036000830152610d8981610d4d565b9050919050565b7f56616c75652063616e206e6f74206265206c6f776572207468616e20656e747260008201527f792070726963652e000000000000000000000000000000000000000000000000602082015250565b6000610dec602883610a8f565b9150610df782610d90565b604082019050919050565b60006020820190508181036000830152610e1b81610ddf565b9050919050565b6000610e2d826109ff565b9150610e38836109ff565b9250827fffffffffffffffffffffffffffffffffffffffffffffffffffffffffffffffff03821115610e6d57610e6c610bcd565b5b828201905092915050565b7f436f756e7465723a2064656372656d656e74206f766572666c6f770000000000600082015250565b6000610eae601b83610a8f565b9150610eb982610e78565b602082019050919050565b60006020820190508181036000830152610edd81610ea1565b905091905056fea264697066735822122055f334a878ee3c0decf35d5b418fea1618d03e4ed202d4716835a624af9939db64736f6c634300080f0033",
  "immutableReferences": {
    "87": [
      {
        "length": 32,
        "start": 1057
      },
      {
        "length": 32,
        "start": 1259
      },
      {
        "length": 32,
        "start": 2100
      },
      {
        "length": 32,
        "start": 2397
      }
    ],
    "89": [
      {
        "length": 32,
        "start": 1171
      },
      {
        "length": 32,
        "start": 1939
      }
    ],
    "91": [
      {
        "length": 32,
        "start": 483
      },
      {
        "length": 32,
        "start": 663
      }
    ]
  },
  "source": "// SPDX-License-Identifier: MIT\n\nimport \"@openzeppelin/contracts/utils/Counters.sol\";\n\npragma solidity ^0.8.7;\n\ncontract Lottery {\n    using Counters for Counters.Counter;\n    Counters.Counter public totalParticipation;\n\n    address public owner;\n    uint public immutable entryPrice;\n    uint public immutable maxParticipancePerUser;\n    uint public immutable minimumParticipationAmount;\n\n    // If you want to spend less gas\n    // you should consider using shorter\n    // variable names. Since this is an example,\n    // I try to make it more readable\n\n    address[] private entries;\n\n    mapping(address=>uint) addressToTotalParticipation;\n\n\n    modifier maxParticipationAmountNotExceeded() {\n        require(addressToTotalParticipation[msg.sender] < maxParticipancePerUser, \"You've exceeded max participation amount.\");\n        _;\n    }\n\n    modifier onlyOwner() {\n        require(msg.sender == owner, \"Only owner can call this function.\");\n        _;\n    }\n\n    modifier enoughtParticipation() {\n        require(totalParticipation.current() >= minimumParticipationAmount, \"Not enough participations.\");\n        _;\n    }\n\n    constructor(uint _entryPrice, uint _maxParticipancePerUser, uint _minimumParticipationAmount) {\n        owner = msg.sender;\n        entryPrice = _entryPrice * 10 **18;\n        maxParticipancePerUser = _maxParticipancePerUser;\n        minimumParticipationAmount = _minimumParticipationAmount;\n    }\n\n    function participate() external payable maxParticipationAmountNotExceeded() {\n        require(msg.value >= entryPrice, \"Value can not be lower than entry price.\");\n        entries.push(msg.sender);\n        totalParticipation.increment();\n        addressToTotalParticipation[msg.sender] += 1;\n    }\n\n    function endLottery() external payable onlyOwner() enoughtParticipation() {\n        address[] memory _entries = entries;\n        uint _length = _entries.length;\n\n        // incrementing i in here is not good for \n        // gas cost\n        for (uint i = 0 ; i < _length; i++) {\n            if (_entries[i] != address(0))\n                payable(_entries[i]).transfer(entryPrice);\n\n        }\n    }\n\n    // User have to pay if the want to remove their participations\n    // it's 10% of total participation amount. So they'll get 90% of \n    // their total entries\n\n    function removeParticipations() external payable {\n        uint _minusRemoveFee = ((addressToTotalParticipation[msg.sender] * entryPrice) / 100) * 90;\n        delete addressToTotalParticipation[msg.sender];\n\n        address[] memory _entries = entries;\n        uint _totalParticipation = totalParticipation.current();\n        // incrementing i in here is not good for \n        // gas cost\n        for (uint i = 0 ; i < _totalParticipation; i++) {\n            if (_entries[i] == msg.sender) {\n                delete entries[i];\n                totalParticipation.decrement();\n            }\n        }\n        payable(msg.sender).transfer(_minusRemoveFee);\n    }\n\n\n    function getUserParticipationAmount() public view returns(uint) {\n        return addressToTotalParticipation[msg.sender];\n    }\n\n    function getContractBalance() public view returns(uint) {\n        return address(this).balance;\n    }\n\n    function getRandomNumber() private view returns(uint) {\n        return uint(keccak256(abi.encodePacked(block.difficulty, block.timestamp, totalParticipation.current())));\n    }\n\n}",
  "sourcePath": "/Users/onur/Desktop/solidity-jackpot/contracts/Lottery.sol",
  "compiler": {
    "name": "solc",
    "version": "0.8.15+commit.e14f2714.Emscripten.clang"
  },
  "schemaVersion": "3.4.8",
  "updatedAt": "2022-08-02T10:27:22.710Z",
  "devdoc": {
    "kind": "dev",
    "methods": {},
    "version": 1
  },
  "userdoc": {
    "kind": "user",
    "methods": {},
    "version": 1
  }
}